{
    "contractName": "Chain",
    "abi": [
        {
            "inputs": [],
            "stateMutability": "nonpayable",
            "type": "constructor"
        },
        {
            "anonymous": false,
            "inputs": [
                {
                    "indexed": true,
                    "internalType": "address",
                    "name": "account",
                    "type": "address"
                }
            ],
            "name": "ConsumerAdded",
            "type": "event"
        },
        {
            "anonymous": false,
            "inputs": [
                {
                    "indexed": true,
                    "internalType": "address",
                    "name": "account",
                    "type": "address"
                }
            ],
            "name": "ConsumerRemoved",
            "type": "event"
        },
        {
            "anonymous": false,
            "inputs": [
                {
                    "indexed": true,
                    "internalType": "address",
                    "name": "account",
                    "type": "address"
                }
            ],
            "name": "DistributorAdded",
            "type": "event"
        },
        {
            "anonymous": false,
            "inputs": [
                {
                    "indexed": true,
                    "internalType": "address",
                    "name": "account",
                    "type": "address"
                }
            ],
            "name": "DistributorRemoved",
            "type": "event"
        },
        {
            "anonymous": false,
            "inputs": [
                {
                    "indexed": true,
                    "internalType": "address",
                    "name": "account",
                    "type": "address"
                }
            ],
            "name": "ManufacturerAdded",
            "type": "event"
        },
        {
            "anonymous": false,
            "inputs": [
                {
                    "indexed": true,
                    "internalType": "address",
                    "name": "account",
                    "type": "address"
                }
            ],
            "name": "ManufacturerRemoved",
            "type": "event"
        },
        {
            "anonymous": false,
            "inputs": [
                {
                    "indexed": false,
                    "internalType": "uint256",
                    "name": "upc",
                    "type": "uint256"
                }
            ],
            "name": "Packed",
            "type": "event"
        },
        {
            "anonymous": false,
            "inputs": [
                {
                    "indexed": false,
                    "internalType": "uint256",
                    "name": "upc",
                    "type": "uint256"
                }
            ],
            "name": "Processed",
            "type": "event"
        },
        {
            "anonymous": false,
            "inputs": [
                {
                    "indexed": false,
                    "internalType": "uint256",
                    "name": "upc",
                    "type": "uint256"
                }
            ],
            "name": "Purchased",
            "type": "event"
        },
        {
            "anonymous": false,
            "inputs": [
                {
                    "indexed": false,
                    "internalType": "uint256",
                    "name": "upc",
                    "type": "uint256"
                }
            ],
            "name": "Received",
            "type": "event"
        },
        {
            "anonymous": false,
            "inputs": [
                {
                    "indexed": true,
                    "internalType": "address",
                    "name": "account",
                    "type": "address"
                }
            ],
            "name": "RetailerAdded",
            "type": "event"
        },
        {
            "anonymous": false,
            "inputs": [
                {
                    "indexed": true,
                    "internalType": "address",
                    "name": "account",
                    "type": "address"
                }
            ],
            "name": "RetailerRemoved",
            "type": "event"
        },
        {
            "anonymous": false,
            "inputs": [
                {
                    "indexed": false,
                    "internalType": "uint256",
                    "name": "upc",
                    "type": "uint256"
                }
            ],
            "name": "Shipped",
            "type": "event"
        },
        {
            "anonymous": false,
            "inputs": [
                {
                    "indexed": false,
                    "internalType": "uint256",
                    "name": "upc",
                    "type": "uint256"
                }
            ],
            "name": "Sold",
            "type": "event"
        },
        {
            "inputs": [],
            "name": "God",
            "outputs": [
                {
                    "internalType": "address",
                    "name": "",
                    "type": "address"
                }
            ],
            "stateMutability": "view",
            "type": "function"
        },
        {
            "inputs": [
                {
                    "internalType": "address",
                    "name": "acc",
                    "type": "address"
                }
            ],
            "name": "addCons",
            "outputs": [],
            "stateMutability": "nonpayable",
            "type": "function"
        },
        {
            "inputs": [
                {
                    "internalType": "address",
                    "name": "acc",
                    "type": "address"
                }
            ],
            "name": "addDistr",
            "outputs": [],
            "stateMutability": "nonpayable",
            "type": "function"
        },
        {
            "inputs": [
                {
                    "internalType": "address",
                    "name": "acc",
                    "type": "address"
                }
            ],
            "name": "addManuf",
            "outputs": [],
            "stateMutability": "nonpayable",
            "type": "function"
        },
        {
            "inputs": [
                {
                    "internalType": "address",
                    "name": "acc",
                    "type": "address"
                }
            ],
            "name": "addRetl",
            "outputs": [],
            "stateMutability": "nonpayable",
            "type": "function"
        },
        {
            "inputs": [
                {
                    "internalType": "address",
                    "name": "acc",
                    "type": "address"
                }
            ],
            "name": "isCons",
            "outputs": [
                {
                    "internalType": "bool",
                    "name": "",
                    "type": "bool"
                }
            ],
            "stateMutability": "view",
            "type": "function"
        },
        {
            "inputs": [
                {
                    "internalType": "address",
                    "name": "acc",
                    "type": "address"
                }
            ],
            "name": "isDistr",
            "outputs": [
                {
                    "internalType": "bool",
                    "name": "",
                    "type": "bool"
                }
            ],
            "stateMutability": "view",
            "type": "function"
        },
        {
            "inputs": [
                {
                    "internalType": "address",
                    "name": "acc",
                    "type": "address"
                }
            ],
            "name": "isManuf",
            "outputs": [
                {
                    "internalType": "bool",
                    "name": "",
                    "type": "bool"
                }
            ],
            "stateMutability": "view",
            "type": "function"
        },
        {
            "inputs": [],
            "name": "isOwner",
            "outputs": [
                {
                    "internalType": "bool",
                    "name": "",
                    "type": "bool"
                }
            ],
            "stateMutability": "view",
            "type": "function"
        },
        {
            "inputs": [
                {
                    "internalType": "address",
                    "name": "acc",
                    "type": "address"
                }
            ],
            "name": "isRetl",
            "outputs": [
                {
                    "internalType": "bool",
                    "name": "",
                    "type": "bool"
                }
            ],
            "stateMutability": "view",
            "type": "function"
        },
        {
            "inputs": [
                {
                    "internalType": "uint256",
                    "name": "_upc",
                    "type": "uint256"
                },
                {
                    "internalType": "address",
                    "name": "_manufID",
                    "type": "address"
                },
                {
                    "internalType": "string",
                    "name": "_descp",
                    "type": "string"
                }
            ],
            "name": "manufProd",
            "outputs": [],
            "stateMutability": "nonpayable",
            "type": "function"
        },
        {
            "inputs": [
                {
                    "internalType": "uint256",
                    "name": "_upc",
                    "type": "uint256"
                }
            ],
            "name": "packedProd",
            "outputs": [],
            "stateMutability": "nonpayable",
            "type": "function"
        },
        {
            "inputs": [
                {
                    "internalType": "uint256",
                    "name": "_upc",
                    "type": "uint256"
                }
            ],
            "name": "purchProd",
            "outputs": [],
            "stateMutability": "nonpayable",
            "type": "function"
        },
        {
            "inputs": [
                {
                    "internalType": "uint256",
                    "name": "_upc",
                    "type": "uint256"
                }
            ],
            "name": "recvProd",
            "outputs": [],
            "stateMutability": "nonpayable",
            "type": "function"
        },
        {
            "inputs": [],
            "name": "remCons",
            "outputs": [],
            "stateMutability": "nonpayable",
            "type": "function"
        },
        {
            "inputs": [],
            "name": "remDistr",
            "outputs": [],
            "stateMutability": "nonpayable",
            "type": "function"
        },
        {
            "inputs": [],
            "name": "remManuf",
            "outputs": [],
            "stateMutability": "nonpayable",
            "type": "function"
        },
        {
            "inputs": [],
            "name": "remRetl",
            "outputs": [],
            "stateMutability": "nonpayable",
            "type": "function"
        },
        {
            "inputs": [
                {
                    "internalType": "uint256",
                    "name": "_upc",
                    "type": "uint256"
                }
            ],
            "name": "shipProd",
            "outputs": [],
            "stateMutability": "nonpayable",
            "type": "function"
        },
        {
            "inputs": [
                {
                    "internalType": "uint256",
                    "name": "_upc",
                    "type": "uint256"
                },
                {
                    "internalType": "uint256",
                    "name": "_price",
                    "type": "uint256"
                }
            ],
            "name": "soldProd",
            "outputs": [],
            "stateMutability": "nonpayable",
            "type": "function"
        }
    ],
    "bytecode": "60806040523480156200001157600080fd5b5062000026336001600160e01b036200007216565b6200003a336001600160e01b036200012216565b6200004e336001600160e01b03620001d416565b62000062336001600160e01b036200028616565b6001600681905560055562000338565b60408051635fc75e6560e11b81526000600482018190526001600160a01b0384166024830152915173__$3ded322083e395b733ebb50007a2190aa1$__9263bf8ebcca9260448082019391829003018186803b158015620000d257600080fd5b505af4158015620000e7573d6000803e3d6000fd5b50506040516001600160a01b03841692507f561138658ca49a8540dc70dcfe64c9026c1c5b9344642242dd6562970f9c12789150600090a250565b60408051635fc75e6560e11b8152600160048201526001600160a01b0383166024820152905173__$3ded322083e395b733ebb50007a2190aa1$__9163bf8ebcca916044808301926000929190829003018186803b1580156200018457600080fd5b505af415801562000199573d6000803e3d6000fd5b50506040516001600160a01b03841692507f28b26e7a3d20aedbc5f8f2ebf7da671c0491723a2b78f47a097b0e46dee071429150600090a250565b60408051635fc75e6560e11b8152600260048201526001600160a01b0383166024820152905173__$3ded322083e395b733ebb50007a2190aa1$__9163bf8ebcca916044808301926000929190829003018186803b1580156200023657600080fd5b505af41580156200024b573d6000803e3d6000fd5b50506040516001600160a01b03841692507f71ae26cad02663e3d92efd6ec56031a80d74a20c0ab4183faa8bf262261c9baa9150600090a250565b60408051635fc75e6560e11b8152600360048201526001600160a01b0383166024820152905173__$3ded322083e395b733ebb50007a2190aa1$__9163bf8ebcca916044808301926000929190829003018186803b158015620002e857600080fd5b505af4158015620002fd573d6000803e3d6000fd5b50506040516001600160a01b03841692507fddbf200aa634dc3fb81cfd68583dd1040d1c751d335e1d86b631bde3e977fea89150600090a250565b61161080620003486000396000f3fe608060405234801561001057600080fd5b506004361061012c5760003560e01c80636e5a67a7116100ad5780639321c716116100715780639321c7161461039c57806396d8a592146103c25780639a047761146103df578063d1ccd35014610405578063da0145fc1461040d5761012c565b80636e5a67a714610285578063740fb3de146102ab57806380a2199b146102b357806383a538461461036e5780638f32d59b146103945761012c565b80631656e6cb116100f45780631656e6cb146101f15780631e4d3fbc146101f95780634d5cb20d1461021f5780635ece42a81461023c57806365a39856146102625761012c565b80630b0a9c16146101315780630d168d3f146101595780631017496714610193578063159dd0fe146101b75780631610b8dd146101d4575b600080fd5b6101576004803603602081101561014757600080fd5b50356001600160a01b0316610415565b005b61017f6004803603602081101561016f57600080fd5b50356001600160a01b0316610471565b604080519115158252519081900360200190f35b61019b610506565b604080516001600160a01b039092168252519081900360200190f35b610157600480360360208110156101cd57600080fd5b5035610515565b610157600480360360208110156101ea57600080fd5b5035610653565b610157610786565b6101576004803603602081101561020f57600080fd5b50356001600160a01b0316610791565b6101576004803603602081101561023557600080fd5b50356107ea565b6101576004803603602081101561025257600080fd5b50356001600160a01b0316610928565b6101576004803603604081101561027857600080fd5b5080359060200135610981565b61017f6004803603602081101561029b57600080fd5b50356001600160a01b0316610ace565b610157610b33565b610157600480360360608110156102c957600080fd5b8135916001600160a01b03602082013516918101906060810160408201356401000000008111156102f957600080fd5b82018360208201111561030b57600080fd5b8035906020019184600183028401116401000000008311171561032d57600080fd5b91908080601f016020809104026020016040519081016040528093929190818152602001838380828437600092019190915250929550610b3c945050505050565b61017f6004803603602081101561038457600080fd5b50356001600160a01b0316610d05565b61017f610d6a565b61017f600480360360208110156103b257600080fd5b50356001600160a01b0316610dc0565b610157600480360360208110156103d857600080fd5b5035610e25565b610157600480360360208110156103f557600080fd5b50356001600160a01b0316610f5b565b610157610fb4565b610157610fbd565b61041e33610dc0565b610465576040805162461bcd60e51b815260206004820152601360248201527214d95b99195c881d5b985d5d1a1bdc9a5cd959606a1b604482015290519081900360640190fd5b61046e81610fc6565b50565b60408051631da23de960e11b81526000600482018190526001600160a01b0384166024830152915173__$3ded322083e395b733ebb50007a2190aa1$__91633b447bd2916044808301926020929190829003018186803b1580156104d457600080fd5b505af41580156104e8573d6000803e3d6000fd5b505050506040513d60208110156104fe57600080fd5b505192915050565b6004546001600160a01b031681565b61051e33610ace565b610565576040805162461bcd60e51b81526020600482015260136024820152721cd95b99195c881d5b985d5d1a1bdc9a5cd959606a1b604482015290519081900360640190fd5b8060046000828152600760208190526040909120015460ff16600581111561058957fe5b146105d7576040805162461bcd60e51b81526020600482015260196024820152781c995c5d5a5c995b595b9d081b9bdd08199d5b199a5b1b1959603a1b604482015290519081900360640190fd5b6000828152600760208181526040928390206002810180546001600160a01b0319908116339081179092556009830180549091169091179055909101805460ff19166005179055815184815291517f653d56639fee6b566a5c804764e9689de38645f0b733df89a36a1b7b42173dd89281900390910190a15050565b80600080828152600760208190526040909120015460ff16600581111561067657fe5b146106c8576040805162461bcd60e51b815260206004820152601a60248201527f726571756972656d656e74206e6f742066756c66696c6c65642e000000000000604482015290519081900360640190fd5b6000828152600760205260409020600301546001600160a01b0316338114610730576040805162461bcd60e51b815260206004820152601660248201527529b2b73232b9103737ba1030baba3437b934bd32b21760511b604482015290519081900360640190fd5b600083815260076020818152604092839020909101805460ff19166001179055815185815291517f9b3b66e2380b690bae22c73ef1428fb0c91e72fe14a4b6defa13035214187aff9281900390910190a1505050565b61078f33611076565b565b61079a33610ace565b6107e1576040805162461bcd60e51b81526020600482015260136024820152721cd95b99195c881d5b985d5d1a1bdc9a5cd959606a1b604482015290519081900360640190fd5b61046e81611126565b6107f333610dc0565b61083a576040805162461bcd60e51b815260206004820152601360248201527214d95b99195c881d5b985d5d1a1bdc9a5cd959606a1b604482015290519081900360640190fd5b8060036000828152600760208190526040909120015460ff16600581111561085e57fe5b146108ac576040805162461bcd60e51b81526020600482015260196024820152781c995c5d5a5c995b595b9d081b9bdd08199d5b199a5b1b1959603a1b604482015290519081900360640190fd5b6000828152600760208181526040928390206002810180546001600160a01b0319908116339081179092556008830180549091169091179055909101805460ff19166004179055815184815291517fa8142743f8f70a4c26f3691cf4ed59718381fb2f18070ec52be1f1022d8555579281900390910190a15050565b61093133610d05565b610978576040805162461bcd60e51b815260206004820152601360248201527214d95b99195c881d5b985d5d1a1bdc9a5cd959606a1b604482015290519081900360640190fd5b61046e816111d6565b61098a33610d05565b6109d1576040805162461bcd60e51b815260206004820152601360248201527214d95b99195c881d5b985d5d1a1bdc9a5cd959606a1b604482015290519081900360640190fd5b8160016000828152600760208190526040909120015460ff1660058111156109f557fe5b14610a43576040805162461bcd60e51b81526020600482015260196024820152781c995c5d5a5c995b595b9d081b9bdd08199d5b199a5b1b1959603a1b604482015290519081900360640190fd5b60008381526007602081815260409283902060028082018054336001600160a01b031990911681179091559382018054610100600160a81b0319166101009095029490941760ff1916179092556006909101849055815185815291517f92f64ca637d023f354075a4be751b169c1a8a9ccb6d33cdd0cb35205439957279281900390910190a1505050565b60408051631da23de960e11b8152600160048201526001600160a01b0383166024820152905160009173__$3ded322083e395b733ebb50007a2190aa1$__91633b447bd291604480820192602092909190829003018186803b1580156104d457600080fd5b61078f33611286565b6040518061016001604052808481526020016006548152602001836001600160a01b03168152602001836001600160a01b031681526020018281526020016005546006540181526020016000815260200160006005811115610b9a57fe5b81526000602080830182905260408084018390526060938401839052878352600782529182902084518155848201516001820155918401516002830180546001600160a01b03199081166001600160a01b039384161790915593850151600384018054909516911617909255608083015180519192610c2192600485019290910190611542565b5060a0820151816005015560c0820151816006015560e08201518160070160006101000a81548160ff02191690836005811115610c5a57fe5b021790555061010082810151600783018054610100600160a81b0319166001600160a01b03928316909302929092179091556101208301516008830180546001600160a01b0319908116928416929092179055610140909301516009909201805490931691161790556006805460010190556040805184815290517f5afe3b1bf87069693c075da5c22a98d63d1aef98a30dbbe538d0781a98b77ee5916020908290030190a1505050565b60408051631da23de960e11b8152600360048201526001600160a01b0383166024820152905160009173__$3ded322083e395b733ebb50007a2190aa1$__91633b447bd291604480820192602092909190829003018186803b1580156104d457600080fd5b6004546000906001600160a01b03163314610dbd576040805162461bcd60e51b815260206004820152600e60248201526d14d95b99195c881b9bdd0811dbd960921b604482015290519081900360640190fd5b90565b60408051631da23de960e11b8152600260048201526001600160a01b0383166024820152905160009173__$3ded322083e395b733ebb50007a2190aa1$__91633b447bd291604480820192602092909190829003018186803b1580156104d457600080fd5b8060026000828152600760208190526040909120015460ff166005811115610e4957fe5b14610e97576040805162461bcd60e51b81526020600482015260196024820152781c995c5d5a5c995b595b9d081b9bdd08199d5b199a5b1b1959603a1b604482015290519081900360640190fd5b6000828152600760208190526040909120015461010090046001600160a01b0316338114610f05576040805162461bcd60e51b815260206004820152601660248201527529b2b73232b9103737ba1030baba3437b934bd32b21760511b604482015290519081900360640190fd5b600083815260076020818152604092839020909101805460ff19166003179055815185815291517ff00b9a5725b80c54016f42114f6ed7792d22eecb116011c4afac29c57bef6c959281900390910190a1505050565b610f6433610471565b610fab576040805162461bcd60e51b815260206004820152601360248201527214d95b99195c881d5b985d5d1a1bdc9a5cd959606a1b604482015290519081900360640190fd5b61046e81611336565b61078f336113e4565b61078f33611494565b60408051635fc75e6560e11b8152600260048201526001600160a01b0383166024820152905173__$3ded322083e395b733ebb50007a2190aa1$__9163bf8ebcca916044808301926000929190829003018186803b15801561102757600080fd5b505af415801561103b573d6000803e3d6000fd5b50506040516001600160a01b03841692507f71ae26cad02663e3d92efd6ec56031a80d74a20c0ab4183faa8bf262261c9baa9150600090a250565b60408051635f21f29f60e01b8152600160048201526001600160a01b0383166024820152905173__$3ded322083e395b733ebb50007a2190aa1$__91635f21f29f916044808301926000929190829003018186803b1580156110d757600080fd5b505af41580156110eb573d6000803e3d6000fd5b50506040516001600160a01b03841692507fe3f5ed5f263f1f01764a96edfc7d025f511ec5f7d180e8816908b78bcf74f0989150600090a250565b60408051635fc75e6560e11b8152600160048201526001600160a01b0383166024820152905173__$3ded322083e395b733ebb50007a2190aa1$__9163bf8ebcca916044808301926000929190829003018186803b15801561118757600080fd5b505af415801561119b573d6000803e3d6000fd5b50506040516001600160a01b03841692507f28b26e7a3d20aedbc5f8f2ebf7da671c0491723a2b78f47a097b0e46dee071429150600090a250565b60408051635fc75e6560e11b8152600360048201526001600160a01b0383166024820152905173__$3ded322083e395b733ebb50007a2190aa1$__9163bf8ebcca916044808301926000929190829003018186803b15801561123757600080fd5b505af415801561124b573d6000803e3d6000fd5b50506040516001600160a01b03841692507fddbf200aa634dc3fb81cfd68583dd1040d1c751d335e1d86b631bde3e977fea89150600090a250565b60408051635f21f29f60e01b8152600260048201526001600160a01b0383166024820152905173__$3ded322083e395b733ebb50007a2190aa1$__91635f21f29f916044808301926000929190829003018186803b1580156112e757600080fd5b505af41580156112fb573d6000803e3d6000fd5b50506040516001600160a01b03841692507fdb7176e79cffef81cb01767dd0447a0b24bb72ca9778d4b245581086b2a7e6db9150600090a250565b60408051635fc75e6560e11b81526000600482018190526001600160a01b0384166024830152915173__$3ded322083e395b733ebb50007a2190aa1$__9263bf8ebcca9260448082019391829003018186803b15801561139557600080fd5b505af41580156113a9573d6000803e3d6000fd5b50506040516001600160a01b03841692507f561138658ca49a8540dc70dcfe64c9026c1c5b9344642242dd6562970f9c12789150600090a250565b60408051635f21f29f60e01b8152600360048201526001600160a01b0383166024820152905173__$3ded322083e395b733ebb50007a2190aa1$__91635f21f29f916044808301926000929190829003018186803b15801561144557600080fd5b505af4158015611459573d6000803e3d6000fd5b50506040516001600160a01b03841692507f126174f6cf49c81cdb4a9214c6b8f037bef55b4ec31e4fc776cea2a1c8a88d599150600090a250565b60408051635f21f29f60e01b81526000600482018190526001600160a01b0384166024830152915173__$3ded322083e395b733ebb50007a2190aa1$__92635f21f29f9260448082019391829003018186803b1580156114f357600080fd5b505af4158015611507573d6000803e3d6000fd5b50506040516001600160a01b03841692507f2fed5abf6a80d6dfe30b4895481b2fc5d7dce5f8f7b931832f4a2947d5040c7f9150600090a250565b828054600181600116156101000203166002900490600052602060002090601f016020900481019282601f1061158357805160ff19168380011785556115b0565b828001600101855582156115b0579182015b828111156115b0578251825591602001919060010190611595565b506115bc9291506115c0565b5090565b610dbd91905b808211156115bc57600081556001016115c656fea26469706673582212205e540e9467dd65d4d6cb626323a57c17b552918ffd782a66d29e77505c809d2c64736f6c63430006090033",
    "sourcePath": "/home/nilkamal/Desktop/Coral/smart_contracts/contracts/Chain.sol",
    "compiler": {
        "name": "solc",
        "version": "0.6.9+commit.3e3065ac"
    },
    "functionHashes": {
        "God()": "10174967",
        "addCons(address)": "1e4d3fbc",
        "addDistr(address)": "5ece42a8",
        "addManuf(address)": "9a047761",
        "addRetl(address)": "0b0a9c16",
        "isCons(address)": "6e5a67a7",
        "isDistr(address)": "83a53846",
        "isManuf(address)": "0d168d3f",
        "isOwner()": "8f32d59b",
        "isRetl(address)": "9321c716",
        "manufProd(uint256,address,string)": "80a2199b",
        "packedProd(uint256)": "1610b8dd",
        "purchProd(uint256)": "159dd0fe",
        "recvProd(uint256)": "4d5cb20d",
        "remCons()": "1656e6cb",
        "remDistr()": "d1ccd350",
        "remManuf()": "da0145fc",
        "remRetl()": "740fb3de",
        "shipProd(uint256)": "96d8a592",
        "soldProd(uint256,uint256)": "65a39856"
    },
    "gasEstimates": {
        "creation": {
            "codeDepositCost": "1129600",
            "executionCost": "infinite",
            "totalCost": "infinite"
        },
        "external": {
            "God()": "1105",
            "addCons(address)": "infinite",
            "addDistr(address)": "infinite",
            "addManuf(address)": "infinite",
            "addRetl(address)": "infinite",
            "isCons(address)": "infinite",
            "isDistr(address)": "infinite",
            "isManuf(address)": "infinite",
            "isOwner()": "1208",
            "isRetl(address)": "infinite",
            "manufProd(uint256,address,string)": "infinite",
            "packedProd(uint256)": "24126",
            "purchProd(uint256)": "infinite",
            "recvProd(uint256)": "infinite",
            "remCons()": "infinite",
            "remDistr()": "infinite",
            "remManuf()": "infinite",
            "remRetl()": "infinite",
            "shipProd(uint256)": "24075",
            "soldProd(uint256,uint256)": "infinite"
        }
    }
}